{
  "contractName": "Clinictrial",
  "abi": [
    {
      "constant": true,
      "inputs": [],
      "name": "clinic",
      "outputs": [
        {
          "name": "",
          "type": "address"
        }
      ],
      "payable": false,
      "stateMutability": "view",
      "type": "function",
      "signature": "0x31abf0e1"
    },
    {
      "inputs": [],
      "payable": false,
      "stateMutability": "nonpayable",
      "type": "constructor",
      "signature": "constructor"
    },
    {
      "constant": false,
      "inputs": [
        {
          "name": "hyp",
          "type": "bytes32"
        },
        {
          "name": "drug",
          "type": "bytes32"
        },
        {
          "name": "dose",
          "type": "bytes32"
        },
        {
          "name": "vc",
          "type": "uint128"
        },
        {
          "name": "criteria",
          "type": "bytes32"
        },
        {
          "name": "pname",
          "type": "bytes32"
        }
      ],
      "name": "setcro",
      "outputs": [
        {
          "name": "tid",
          "type": "uint128"
        }
      ],
      "payable": false,
      "stateMutability": "nonpayable",
      "type": "function",
      "signature": "0xba75ddcc"
    },
    {
      "constant": true,
      "inputs": [
        {
          "name": "id",
          "type": "uint128"
        }
      ],
      "name": "getcro",
      "outputs": [
        {
          "name": "",
          "type": "uint128"
        },
        {
          "name": "",
          "type": "bytes32"
        },
        {
          "name": "",
          "type": "bytes32"
        },
        {
          "name": "",
          "type": "bytes32"
        },
        {
          "name": "",
          "type": "uint128"
        },
        {
          "name": "",
          "type": "bytes32"
        },
        {
          "name": "",
          "type": "bytes32"
        }
      ],
      "payable": false,
      "stateMutability": "view",
      "type": "function",
      "signature": "0xf0878bcb"
    },
    {
      "constant": true,
      "inputs": [
        {
          "name": "id",
          "type": "uint128"
        }
      ],
      "name": "getcroid",
      "outputs": [
        {
          "name": "",
          "type": "uint128"
        }
      ],
      "payable": false,
      "stateMutability": "view",
      "type": "function",
      "signature": "0x077fb796"
    },
    {
      "constant": false,
      "inputs": [
        {
          "name": "vname",
          "type": "bytes32"
        },
        {
          "name": "vcontact",
          "type": "uint128"
        },
        {
          "name": "vdob",
          "type": "bytes32"
        },
        {
          "name": "vg",
          "type": "bytes32"
        },
        {
          "name": "vw",
          "type": "uint128"
        },
        {
          "name": "vh",
          "type": "uint128"
        },
        {
          "name": "vr",
          "type": "bytes32"
        },
        {
          "name": "vs",
          "type": "bool"
        },
        {
          "name": "vallergy",
          "type": "bytes32"
        },
        {
          "name": "vmedic",
          "type": "bytes32"
        },
        {
          "name": "light",
          "type": "bytes32"
        },
        {
          "name": "pharmacologist1",
          "type": "bytes32"
        }
      ],
      "name": "RegisterVolunteer",
      "outputs": [],
      "payable": false,
      "stateMutability": "nonpayable",
      "type": "function",
      "signature": "0x8554d0fc"
    },
    {
      "constant": false,
      "inputs": [
        {
          "name": "j",
          "type": "bytes32"
        }
      ],
      "name": "getvolunteer",
      "outputs": [
        {
          "name": "",
          "type": "bytes32"
        },
        {
          "name": "",
          "type": "uint128"
        },
        {
          "name": "",
          "type": "bytes32"
        },
        {
          "name": "",
          "type": "bytes32"
        },
        {
          "name": "",
          "type": "uint128"
        },
        {
          "name": "",
          "type": "uint128"
        },
        {
          "name": "",
          "type": "bytes32"
        },
        {
          "name": "",
          "type": "bool"
        },
        {
          "name": "",
          "type": "bytes32"
        },
        {
          "name": "",
          "type": "bytes32"
        },
        {
          "name": "",
          "type": "bytes32"
        },
        {
          "name": "",
          "type": "bytes32"
        }
      ],
      "payable": false,
      "stateMutability": "nonpayable",
      "type": "function",
      "signature": "0xbcfe7db9"
    },
    {
      "constant": true,
      "inputs": [
        {
          "name": "j",
          "type": "uint256"
        }
      ],
      "name": "getvolunteernew",
      "outputs": [
        {
          "name": "",
          "type": "bytes32"
        }
      ],
      "payable": false,
      "stateMutability": "view",
      "type": "function",
      "signature": "0xbe498ad8"
    },
    {
      "constant": false,
      "inputs": [
        {
          "name": "n",
          "type": "bytes32"
        }
      ],
      "name": "pharma",
      "outputs": [
        {
          "name": "pid",
          "type": "uint256"
        }
      ],
      "payable": false,
      "stateMutability": "nonpayable",
      "type": "function",
      "signature": "0xea44df11"
    },
    {
      "constant": false,
      "inputs": [
        {
          "name": "testdate",
          "type": "bytes32"
        },
        {
          "name": "week",
          "type": "uint128"
        },
        {
          "name": "dosage",
          "type": "bytes32"
        },
        {
          "name": "state",
          "type": "bytes32"
        },
        {
          "name": "sideffects",
          "type": "bytes32"
        },
        {
          "name": "outcome",
          "type": "bytes32"
        },
        {
          "name": "terminate",
          "type": "bool"
        },
        {
          "name": "kinetics",
          "type": "bytes32"
        },
        {
          "name": "dynamics",
          "type": "bytes32"
        }
      ],
      "name": "pharmadetails",
      "outputs": [
        {
          "name": "rpid",
          "type": "uint128"
        }
      ],
      "payable": false,
      "stateMutability": "nonpayable",
      "type": "function",
      "signature": "0x4c93d546"
    },
    {
      "constant": false,
      "inputs": [
        {
          "name": "volid",
          "type": "bytes32"
        },
        {
          "name": "seriousness",
          "type": "bytes32"
        },
        {
          "name": "expectedness",
          "type": "bytes32"
        },
        {
          "name": "relatedness",
          "type": "bytes32"
        }
      ],
      "name": "setPi",
      "outputs": [],
      "payable": false,
      "stateMutability": "nonpayable",
      "type": "function",
      "signature": "0x636cc6f9"
    },
    {
      "constant": true,
      "inputs": [
        {
          "name": "volid",
          "type": "bytes32"
        }
      ],
      "name": "getPi",
      "outputs": [
        {
          "name": "",
          "type": "bytes32"
        },
        {
          "name": "",
          "type": "bytes32"
        },
        {
          "name": "",
          "type": "bytes32"
        }
      ],
      "payable": false,
      "stateMutability": "view",
      "type": "function",
      "signature": "0x948ebce9"
    },
    {
      "constant": false,
      "inputs": [
        {
          "name": "volid",
          "type": "bytes32"
        },
        {
          "name": "effectiveness",
          "type": "bytes32"
        },
        {
          "name": "sideeffects",
          "type": "bytes32"
        },
        {
          "name": "testsuccess",
          "type": "bytes32"
        }
      ],
      "name": "setMi",
      "outputs": [],
      "payable": false,
      "stateMutability": "nonpayable",
      "type": "function",
      "signature": "0xd99fb595"
    },
    {
      "constant": true,
      "inputs": [
        {
          "name": "volid",
          "type": "bytes32"
        }
      ],
      "name": "getMi",
      "outputs": [
        {
          "name": "",
          "type": "bytes32"
        },
        {
          "name": "",
          "type": "bytes32"
        },
        {
          "name": "",
          "type": "bytes32"
        }
      ],
      "payable": false,
      "stateMutability": "view",
      "type": "function",
      "signature": "0xcfb27fcd"
    }
  ],
  "bytecode": "0x608060405234801561001057600080fd5b5033600360006101000a81548173ffffffffffffffffffffffffffffffffffffffff021916908373ffffffffffffffffffffffffffffffffffffffff160217905550611ac3806100616000396000f3fe6080604052600436106100c5576000357c0100000000000000000000000000000000000000000000000000000000900463ffffffff168063077fb796146100ca57806331abf0e11461014f5780634c93d546146101a6578063636cc6f91461027e5780638554d0fc146102d7578063948ebce9146103b9578063ba75ddcc14610416578063bcfe7db9146104cd578063be498ad8146105d9578063cfb27fcd14610628578063d99fb59514610685578063ea44df11146106de578063f0878bcb1461072d575b600080fd5b3480156100d657600080fd5b50610115600480360360208110156100ed57600080fd5b8101908080356fffffffffffffffffffffffffffffffff169060200190929190505050610800565b60405180826fffffffffffffffffffffffffffffffff166fffffffffffffffffffffffffffffffff16815260200191505060405180910390f35b34801561015b57600080fd5b50610164610921565b604051808273ffffffffffffffffffffffffffffffffffffffff1673ffffffffffffffffffffffffffffffffffffffff16815260200191505060405180910390f35b3480156101b257600080fd5b5061024460048036036101208110156101ca57600080fd5b810190808035906020019092919080356fffffffffffffffffffffffffffffffff169060200190929190803590602001909291908035906020019092919080359060200190929190803590602001909291908035151590602001909291908035906020019092919080359060200190929190505050610947565b60405180826fffffffffffffffffffffffffffffffff166fffffffffffffffffffffffffffffffff16815260200191505060405180910390f35b34801561028a57600080fd5b506102d5600480360360808110156102a157600080fd5b8101908080359060200190929190803590602001909291908035906020019092919080359060200190929190505050610b37565b005b3480156102e357600080fd5b506103b760048036036101808110156102fb57600080fd5b810190808035906020019092919080356fffffffffffffffffffffffffffffffff169060200190929190803590602001909291908035906020019092919080356fffffffffffffffffffffffffffffffff16906020019092919080356fffffffffffffffffffffffffffffffff1690602001909291908035906020019092919080351515906020019092919080359060200190929190803590602001909291908035906020019092919080359060200190929190505050610bb7565b005b3480156103c557600080fd5b506103f2600480360360208110156103dc57600080fd5b8101908080359060200190929190505050610fc9565b60405180848152602001838152602001828152602001935050505060405180910390f35b34801561042257600080fd5b50610493600480360360c081101561043957600080fd5b8101908080359060200190929190803590602001909291908035906020019092919080356fffffffffffffffffffffffffffffffff169060200190929190803590602001909291908035906020019092919050505061103c565b60405180826fffffffffffffffffffffffffffffffff166fffffffffffffffffffffffffffffffff16815260200191505060405180910390f35b3480156104d957600080fd5b50610506600480360360208110156104f057600080fd5b810190808035906020019092919050505061124d565b604051808d81526020018c6fffffffffffffffffffffffffffffffff166fffffffffffffffffffffffffffffffff1681526020018b81526020018a8152602001896fffffffffffffffffffffffffffffffff166fffffffffffffffffffffffffffffffff168152602001886fffffffffffffffffffffffffffffffff166fffffffffffffffffffffffffffffffff168152602001878152602001861515151581526020018581526020018481526020018381526020018281526020019c5050505050505050505050505060405180910390f35b3480156105e557600080fd5b50610612600480360360208110156105fc57600080fd5b8101908080359060200190929190505050611446565b6040518082815260200191505060405180910390f35b34801561063457600080fd5b506106616004803603602081101561064b57600080fd5b81019080803590602001909291905050506115c9565b60405180848152602001838152602001828152602001935050505060405180910390f35b34801561069157600080fd5b506106dc600480360360808110156106a857600080fd5b810190808035906020019092919080359060200190929190803590602001909291908035906020019092919050505061163c565b005b3480156106ea57600080fd5b506107176004803603602081101561070157600080fd5b81019080803590602001909291905050506116bc565b6040518082815260200191505060405180910390f35b34801561073957600080fd5b506107786004803603602081101561075057600080fd5b8101908080356fffffffffffffffffffffffffffffffff16906020019092919050505061171d565b60405180886fffffffffffffffffffffffffffffffff166fffffffffffffffffffffffffffffffff168152602001878152602001868152602001858152602001846fffffffffffffffffffffffffffffffff166fffffffffffffffffffffffffffffffff16815260200183815260200182815260200197505050505050505060405180910390f35b600061080a611877565b600080846fffffffffffffffffffffffffffffffff166fffffffffffffffffffffffffffffffff16815260200190815260200160002060e060405190810160405290816000820160009054906101000a90046fffffffffffffffffffffffffffffffff166fffffffffffffffffffffffffffffffff166fffffffffffffffffffffffffffffffff1681526020016001820154815260200160028201548152602001600382015481526020016004820160009054906101000a90046fffffffffffffffffffffffffffffffff166fffffffffffffffffffffffffffffffff166fffffffffffffffffffffffffffffffff1681526020016005820154815260200160068201548152505090508060000151915050919050565b600360009054906101000a900473ffffffffffffffffffffffffffffffffffffffff1681565b6000600f600081819054906101000a90046fffffffffffffffffffffffffffffffff168092919060010191906101000a8154816fffffffffffffffffffffffffffffffff02191690836fffffffffffffffffffffffffffffffff16021790555090506109b16118e8565b60026000836fffffffffffffffffffffffffffffffff166fffffffffffffffffffffffffffffffff1681526020019081526020016000206101206040519081016040529081600082015481526020016001820160009054906101000a90046fffffffffffffffffffffffffffffffff166fffffffffffffffffffffffffffffffff166fffffffffffffffffffffffffffffffff168152602001600282015481526020016003820154815260200160048201548152602001600582015481526020016006820160009054906101000a900460ff161515151581526020016007820154815260200160088201548152505090508a8160000181815250508981602001906fffffffffffffffffffffffffffffffff1690816fffffffffffffffffffffffffffffffff1681525050888160400181815250508781606001818152505086816080018181525050858160a0018181525050848160c0019015159081151581525050838160e00181815250508281610100018181525050509998505050505050505050565b610b3f61195e565b600c6000868152602001908152602001600020608060405190810160405290816000820154815260200160018201548152602001600282015481526020016003820154815250509050848160000181815250508381602001818152505082816040018181525050818160600181815250505050505050565b81600b81905550610bc6611993565b60086000600b5481526020019081526020016000206101806040519081016040529081600082015481526020016001820160009054906101000a90046fffffffffffffffffffffffffffffffff166fffffffffffffffffffffffffffffffff166fffffffffffffffffffffffffffffffff16815260200160028201548152602001600382015481526020016004820160009054906101000a90046fffffffffffffffffffffffffffffffff166fffffffffffffffffffffffffffffffff166fffffffffffffffffffffffffffffffff1681526020016004820160109054906101000a90046fffffffffffffffffffffffffffffffff166fffffffffffffffffffffffffffffffff166fffffffffffffffffffffffffffffffff168152602001600582015481526020016006820160009054906101000a900460ff16151515158152602001600782015481526020016008820154815260200160098201548152602001600a820154815250509050610d3b611993565b60096000600a5481526020019081526020016000206101806040519081016040529081600082015481526020016001820160009054906101000a90046fffffffffffffffffffffffffffffffff166fffffffffffffffffffffffffffffffff166fffffffffffffffffffffffffffffffff16815260200160028201548152602001600382015481526020016004820160009054906101000a90046fffffffffffffffffffffffffffffffff166fffffffffffffffffffffffffffffffff166fffffffffffffffffffffffffffffffff1681526020016004820160109054906101000a90046fffffffffffffffffffffffffffffffff166fffffffffffffffffffffffffffffffff166fffffffffffffffffffffffffffffffff168152602001600582015481526020016006820160009054906101000a900460ff16151515158152602001600782015481526020016008820154815260200160098201548152602001600a8201548152505090508d8260000181815250508c82602001906fffffffffffffffffffffffffffffffff1690816fffffffffffffffffffffffffffffffff16815250508b8260400181815250508a8260600181815250508982608001906fffffffffffffffffffffffffffffffff1690816fffffffffffffffffffffffffffffffff1681525050888260a001906fffffffffffffffffffffffffffffffff1690816fffffffffffffffffffffffffffffffff1681525050878260c0018181525050868260e001901515908115158152505085826101000181815250508482610120018181525050838261014001818152505083816101400181815250508282610160018181525050600a600081548092919060010191905055505050505050505050505050505050565b6000806000610fd661195e565b600c6000868152602001908152602001600020608060405190810160405290816000820154815260200160018201548152602001600282015481526020016003820154815250509050806020015181604001518260600151935093509350509193909250565b60006007600081819054906101000a90046fffffffffffffffffffffffffffffffff168092919060010191906101000a8154816fffffffffffffffffffffffffffffffff02191690836fffffffffffffffffffffffffffffffff16021790555090506110a6611877565b600080836fffffffffffffffffffffffffffffffff166fffffffffffffffffffffffffffffffff16815260200190815260200160002060e060405190810160405290816000820160009054906101000a90046fffffffffffffffffffffffffffffffff166fffffffffffffffffffffffffffffffff166fffffffffffffffffffffffffffffffff1681526020016001820154815260200160028201548152602001600382015481526020016004820160009054906101000a90046fffffffffffffffffffffffffffffffff166fffffffffffffffffffffffffffffffff166fffffffffffffffffffffffffffffffff1681526020016005820154815260200160068201548152505090508181600001906fffffffffffffffffffffffffffffffff1690816fffffffffffffffffffffffffffffffff16815250508781602001818152505086816040018181525050858160600181815250508481608001906fffffffffffffffffffffffffffffffff1690816fffffffffffffffffffffffffffffffff1681525050838160a0018181525050828160c0018181525050509695505050505050565b600080600080600080600080600080600080611267611993565b600860008f81526020019081526020016000206101806040519081016040529081600082015481526020016001820160009054906101000a90046fffffffffffffffffffffffffffffffff166fffffffffffffffffffffffffffffffff166fffffffffffffffffffffffffffffffff16815260200160028201548152602001600382015481526020016004820160009054906101000a90046fffffffffffffffffffffffffffffffff166fffffffffffffffffffffffffffffffff166fffffffffffffffffffffffffffffffff1681526020016004820160109054906101000a90046fffffffffffffffffffffffffffffffff166fffffffffffffffffffffffffffffffff166fffffffffffffffffffffffffffffffff168152602001600582015481526020016006820160009054906101000a900460ff16151515158152602001600782015481526020016008820154815260200160098201548152602001600a820154815250509050806101600151600e81905550806000015181602001518260400151836060015184608001518560a001518660c001518760e001518861010001518961012001518a61014001518b61016001519c509c509c509c509c509c509c509c509c509c509c509c505091939597999b5091939597999b565b6000611450611993565b600960008481526020019081526020016000206101806040519081016040529081600082015481526020016001820160009054906101000a90046fffffffffffffffffffffffffffffffff166fffffffffffffffffffffffffffffffff166fffffffffffffffffffffffffffffffff16815260200160028201548152602001600382015481526020016004820160009054906101000a90046fffffffffffffffffffffffffffffffff166fffffffffffffffffffffffffffffffff166fffffffffffffffffffffffffffffffff1681526020016004820160109054906101000a90046fffffffffffffffffffffffffffffffff166fffffffffffffffffffffffffffffffff166fffffffffffffffffffffffffffffffff168152602001600582015481526020016006820160009054906101000a900460ff16151515158152602001600782015481526020016008820154815260200160098201548152602001600a820154815250509050806101400151915050919050565b60008060006115d6611a45565b600d6000868152602001908152602001600020608060405190810160405290816000820154815260200160018201548152602001600282015481526020016003820154815250509050806020015181604001518260600151935093509350509193909250565b611644611a45565b600d6000868152602001908152602001600020608060405190810160405290816000820154815260200160018201548152602001600282015481526020016003820154815250509050848160000181815250508381602001818152505082816040018181525050818160600181815250505050505050565b6000600560008154809291906001019190505590506116d9611a7a565b600160008381526020019081526020016000206040805190810160405290816000820154815260200160018201548152505090508281602001818152505050919050565b6000806000806000806000611730611877565b6000808a6fffffffffffffffffffffffffffffffff166fffffffffffffffffffffffffffffffff16815260200190815260200160002060e060405190810160405290816000820160009054906101000a90046fffffffffffffffffffffffffffffffff166fffffffffffffffffffffffffffffffff166fffffffffffffffffffffffffffffffff1681526020016001820154815260200160028201548152602001600382015481526020016004820160009054906101000a90046fffffffffffffffffffffffffffffffff166fffffffffffffffffffffffffffffffff166fffffffffffffffffffffffffffffffff168152602001600582015481526020016006820154815250509050806000015181602001518260400151836060015184608001518560a001518660c00151975097509750975097509750975050919395979092949650565b60e06040519081016040528060006fffffffffffffffffffffffffffffffff16815260200160008019168152602001600080191681526020016000801916815260200160006fffffffffffffffffffffffffffffffff16815260200160008019168152602001600080191681525090565b610120604051908101604052806000801916815260200160006fffffffffffffffffffffffffffffffff1681526020016000801916815260200160008019168152602001600080191681526020016000801916815260200160001515815260200160008019168152602001600080191681525090565b608060405190810160405280600080191681526020016000801916815260200160008019168152602001600080191681525090565b610180604051908101604052806000801916815260200160006fffffffffffffffffffffffffffffffff168152602001600080191681526020016000801916815260200160006fffffffffffffffffffffffffffffffff16815260200160006fffffffffffffffffffffffffffffffff16815260200160008019168152602001600015158152602001600080191681526020016000801916815260200160008019168152602001600080191681525090565b608060405190810160405280600080191681526020016000801916815260200160008019168152602001600080191681525090565b60408051908101604052806000815260200160008019168152509056fea165627a7a72305820786cb4045d2f3ddf35c9073cd10a4400925b3ef4d0c9c94776585847886ed7bc0029",
  "source": "pragma solidity ^0.5.0;\n\ncontract Clinictrial {  \n    struct Volunteer {\n        bytes32 vname;\n        uint128 vcontact;\n        bytes32 vdob;\n        bytes32 vg;\n        uint128 vw;\n        uint128 vh;\n        bytes32 vr;\n        bool vs;\n        bytes32 vallergy;\n        bytes32 vmedic;\n        bytes32 lightwallet;  \n        bytes32 vpharma;    \n    }\n    \n    struct pharmacologist {\n        uint id;\n        bytes32 name;\n    }\n\n    struct registerpharma {\n\n        bytes32 testdate;\n        uint128 week;\n        bytes32 dosage;\n        bytes32 state;\n        bytes32 sideffects;\n        bytes32 outcome;\n        bool terminate;\n        bytes32 kinetics;\n        bytes32 dynamics;\n\n    }\n\n    struct cro {\n        uint128 tid;\n        bytes32 thyp;\n        bytes32 drug;\n        bytes32 dose;\n        uint128 vc;\n        bytes32 criteria;\n        bytes32 pname;\n        \n    }\n    \n     mapping(uint128 => cro) c1;\n     mapping(uint => pharmacologist) p1;\n     mapping(uint128 => registerpharma) rp1;\n       \n    address public clinic;\n    uint i;\n    uint ph;\n    uint ch;\n    uint128 th;\n\n    mapping(bytes32 => Volunteer) v1;\n    \n    mapping(uint => Volunteer) v2;\n    uint count;\n    bytes32 naddr;\n\n    constructor() public {\n        clinic = msg.sender;\n    }\n\n\n    struct Pi {\n        bytes32 volid;\n        bytes32 seriousness;\n        bytes32 expectedness;\n        bytes32 relatedness;\n        \n    }\n\nmapping(bytes32 => Pi) pp1;\n\n  struct Mi {\n        bytes32 volid;\n        bytes32 effectiveness;\n        bytes32 sideeffects;\n        bytes32 testsuccess;\n        \n    }\n\nmapping(bytes32 => Mi) mi1;\n\nfunction setcro( bytes32 hyp, bytes32 drug, bytes32 dose, uint128 vc, bytes32 criteria, bytes32 pname) public returns(uint128 tid) {   \n        tid = th++;\n        Clinictrial.cro memory c = c1[tid];\n        c.tid = tid;\n        c.thyp=hyp;\n        c.drug=drug;\n        c.dose=dose;\n        c.vc=vc;\n        c.criteria=criteria;\n        c.pname = pname;\n    }\n    function getcro(uint128 id) view public returns ( uint128, bytes32, bytes32, bytes32, uint128, bytes32,bytes32) {\n        Clinictrial.cro memory c = c1[id];\n        return(c.tid,c.thyp,c.drug,c.dose,c.vc,c.criteria,c.pname);\n    }\n\n     function getcroid(uint128 id) view public returns (uint128) {\n        Clinictrial.cro memory c = c1[id];\n        return(c.tid);\n    }\n\n\n    function RegisterVolunteer (bytes32 vname, uint128 vcontact, bytes32 vdob, bytes32 vg, uint128 vw, uint128 vh, bytes32 vr, bool vs, bytes32 vallergy, bytes32 vmedic, bytes32 light, bytes32 pharmacologist1) public { \n       \n       naddr = light;\n    \n       Clinictrial.Volunteer memory v  = v1[naddr];\n       Clinictrial.Volunteer memory vn = v2[count];\n       v.vname=vname;\n       v.vcontact=vcontact;\n       v.vdob=vdob;\n       v.vg=vg;\n       v.vw=vw;\n       v.vh=vh;\n       v.vr=vr;\n       v.vs=vs;\n       v.vallergy=vallergy;\n       v.vmedic = vmedic;\n       v.lightwallet = light;\n       vn.lightwallet = light;\n       v.vpharma = pharmacologist1;\n       count++;\n    }\n   \n   bytes32 pharmachecker;\n    function getvolunteer(bytes32 j)  public returns(bytes32, uint128, bytes32, bytes32, uint128, uint128, bytes32, bool, bytes32, bytes32, bytes32,bytes32) {\n        Clinictrial.Volunteer memory v = v1[j];\n        pharmachecker = v.vpharma;\n        return(v.vname,v.vcontact,v.vdob,v.vg,v.vw,v.vh,v.vr,v.vs,v.vallergy,v.vmedic, v.lightwallet,v.vpharma);\n    }\n\n    function getvolunteernew(uint j) view public returns(bytes32) {\n       \n        Clinictrial.Volunteer memory v = v2[j];\n    \n        return(v.lightwallet);\n        \n    }\n\n      function pharma (bytes32 n) public returns(uint pid) {\n        pid = ph++;\n        Clinictrial.pharmacologist memory p = p1[pid];\n        p.name=n;\n        \n    }\n\n   uint128 count1;\n   \n   function pharmadetails(bytes32 testdate, uint128 week, bytes32 dosage, bytes32 state, bytes32 sideffects, bytes32 outcome, bool terminate, bytes32 kinetics, bytes32 dynamics) public returns (uint128 rpid) {\n    rpid = count1++;\n    Clinictrial.registerpharma memory rp = rp1[rpid];\n   \n   rp.testdate = testdate;\n   rp.week = week;\n   rp.dosage =dosage;\n   rp.state = state;\n   rp.sideffects = sideffects;\n   rp.outcome = outcome;\n   rp.terminate = terminate;\n   rp.kinetics = kinetics;\n   rp.dynamics = dynamics;\n   }\n\n   \n  function setPi(bytes32 volid, bytes32 seriousness, bytes32 expectedness, bytes32 relatedness) public {\n    Clinictrial.Pi memory pp = pp1[volid];\n    pp.volid = volid;\n    pp.seriousness = seriousness;\n    pp.expectedness = expectedness;\n    pp.relatedness = relatedness;      \n  }\n\n  function getPi(bytes32 volid) view public returns(bytes32, bytes32, bytes32) {\n      Clinictrial.Pi memory pp = pp1[volid];\n      return(pp.seriousness,pp.expectedness,pp.relatedness); \n\n  }\n  function setMi(bytes32 volid, bytes32 effectiveness, bytes32 sideeffects, bytes32 testsuccess) public {\n    Clinictrial.Mi memory mi = mi1[volid];\n    mi.volid = volid;\n    mi.effectiveness = effectiveness;\n    mi.sideeffects = sideeffects;\n    mi.testsuccess = testsuccess;      \n  }\n\n  function getMi(bytes32 volid) view public returns(bytes32, bytes32, bytes32) {\n      Clinictrial.Mi memory pp = mi1[volid];\n      return(pp.effectiveness,pp.sideeffects,pp.testsuccess); \n\n  }\n}\n",
  "sourcePath": "/home/nikhil/Downloads/Programs/ClinicalTrial/contracts/Clinictrial.sol",
  "compiler": {
    "name": "solc",
    "version": "0.5.0+commit.1d4f565a.Emscripten.clang"
  },
  "schemaVersion": "3.0.2",
  "updatedAt": "2019-03-06T09:20:30.065Z",
  "devdoc": {
    "methods": {}
  },
  "userdoc": {
    "methods": {}
  }
}